{
  "address": "0x92A4719333F3f6Dd99E002fA34048994f3A6E889",
  "abi": [
    {
      "inputs": [],
      "stateMutability": "nonpayable",
      "type": "constructor"
    },
    {
      "inputs": [],
      "name": "EnforcedPause",
      "type": "error"
    },
    {
      "inputs": [],
      "name": "ExpectedPause",
      "type": "error"
    },
    {
      "inputs": [
        {
          "internalType": "address",
          "name": "owner",
          "type": "address"
        }
      ],
      "name": "OwnableInvalidOwner",
      "type": "error"
    },
    {
      "inputs": [
        {
          "internalType": "address",
          "name": "account",
          "type": "address"
        }
      ],
      "name": "OwnableUnauthorizedAccount",
      "type": "error"
    },
    {
      "inputs": [],
      "name": "ReentrancyGuardReentrantCall",
      "type": "error"
    },
    {
      "anonymous": false,
      "inputs": [
        {
          "indexed": true,
          "internalType": "address",
          "name": "seller",
          "type": "address"
        },
        {
          "indexed": true,
          "internalType": "address",
          "name": "nftContract",
          "type": "address"
        },
        {
          "indexed": true,
          "internalType": "uint256",
          "name": "tokenId",
          "type": "uint256"
        }
      ],
      "name": "ListingCanceled",
      "type": "event"
    },
    {
      "anonymous": false,
      "inputs": [
        {
          "indexed": true,
          "internalType": "address",
          "name": "seller",
          "type": "address"
        },
        {
          "indexed": true,
          "internalType": "address",
          "name": "nftContract",
          "type": "address"
        },
        {
          "indexed": true,
          "internalType": "uint256",
          "name": "tokenId",
          "type": "uint256"
        },
        {
          "indexed": false,
          "internalType": "uint256",
          "name": "newPrice",
          "type": "uint256"
        }
      ],
      "name": "ListingPriceUpdated",
      "type": "event"
    },
    {
      "anonymous": false,
      "inputs": [
        {
          "indexed": true,
          "internalType": "address",
          "name": "seller",
          "type": "address"
        },
        {
          "indexed": true,
          "internalType": "address",
          "name": "nftContract",
          "type": "address"
        },
        {
          "indexed": true,
          "internalType": "uint256",
          "name": "tokenId",
          "type": "uint256"
        },
        {
          "indexed": false,
          "internalType": "uint256",
          "name": "price",
          "type": "uint256"
        }
      ],
      "name": "NFTListed",
      "type": "event"
    },
    {
      "anonymous": false,
      "inputs": [
        {
          "indexed": true,
          "internalType": "address",
          "name": "buyer",
          "type": "address"
        },
        {
          "indexed": true,
          "internalType": "address",
          "name": "nftContract",
          "type": "address"
        },
        {
          "indexed": true,
          "internalType": "uint256",
          "name": "tokenId",
          "type": "uint256"
        },
        {
          "indexed": false,
          "internalType": "uint256",
          "name": "price",
          "type": "uint256"
        }
      ],
      "name": "NFTSold",
      "type": "event"
    },
    {
      "anonymous": false,
      "inputs": [
        {
          "indexed": true,
          "internalType": "address",
          "name": "previousOwner",
          "type": "address"
        },
        {
          "indexed": true,
          "internalType": "address",
          "name": "newOwner",
          "type": "address"
        }
      ],
      "name": "OwnershipTransferred",
      "type": "event"
    },
    {
      "anonymous": false,
      "inputs": [
        {
          "indexed": false,
          "internalType": "address",
          "name": "account",
          "type": "address"
        }
      ],
      "name": "Paused",
      "type": "event"
    },
    {
      "anonymous": false,
      "inputs": [
        {
          "indexed": false,
          "internalType": "address",
          "name": "account",
          "type": "address"
        }
      ],
      "name": "Unpaused",
      "type": "event"
    },
    {
      "inputs": [
        {
          "internalType": "address",
          "name": "",
          "type": "address"
        },
        {
          "internalType": "uint256",
          "name": "",
          "type": "uint256"
        }
      ],
      "name": "activeListings",
      "outputs": [
        {
          "internalType": "bool",
          "name": "",
          "type": "bool"
        }
      ],
      "stateMutability": "view",
      "type": "function"
    },
    {
      "inputs": [
        {
          "internalType": "uint256",
          "name": "listingId",
          "type": "uint256"
        }
      ],
      "name": "buyNFT",
      "outputs": [],
      "stateMutability": "payable",
      "type": "function"
    },
    {
      "inputs": [
        {
          "internalType": "uint256",
          "name": "listingId",
          "type": "uint256"
        }
      ],
      "name": "cancelListing",
      "outputs": [],
      "stateMutability": "nonpayable",
      "type": "function"
    },
    {
      "inputs": [
        {
          "internalType": "address",
          "name": "nftContract",
          "type": "address"
        },
        {
          "internalType": "uint256",
          "name": "tokenId",
          "type": "uint256"
        }
      ],
      "name": "isActiveListing",
      "outputs": [
        {
          "internalType": "bool",
          "name": "",
          "type": "bool"
        }
      ],
      "stateMutability": "view",
      "type": "function"
    },
    {
      "inputs": [
        {
          "internalType": "address",
          "name": "nftContract",
          "type": "address"
        },
        {
          "internalType": "uint256",
          "name": "tokenId",
          "type": "uint256"
        },
        {
          "internalType": "uint256",
          "name": "price",
          "type": "uint256"
        }
      ],
      "name": "listNFT",
      "outputs": [],
      "stateMutability": "nonpayable",
      "type": "function"
    },
    {
      "inputs": [
        {
          "internalType": "uint256",
          "name": "",
          "type": "uint256"
        }
      ],
      "name": "listings",
      "outputs": [
        {
          "internalType": "address",
          "name": "seller",
          "type": "address"
        },
        {
          "internalType": "address",
          "name": "nftContract",
          "type": "address"
        },
        {
          "internalType": "uint256",
          "name": "tokenId",
          "type": "uint256"
        },
        {
          "internalType": "uint256",
          "name": "price",
          "type": "uint256"
        },
        {
          "internalType": "bool",
          "name": "sold",
          "type": "bool"
        }
      ],
      "stateMutability": "view",
      "type": "function"
    },
    {
      "inputs": [],
      "name": "owner",
      "outputs": [
        {
          "internalType": "address",
          "name": "",
          "type": "address"
        }
      ],
      "stateMutability": "view",
      "type": "function"
    },
    {
      "inputs": [],
      "name": "pause",
      "outputs": [],
      "stateMutability": "nonpayable",
      "type": "function"
    },
    {
      "inputs": [],
      "name": "paused",
      "outputs": [
        {
          "internalType": "bool",
          "name": "",
          "type": "bool"
        }
      ],
      "stateMutability": "view",
      "type": "function"
    },
    {
      "inputs": [],
      "name": "renounceOwnership",
      "outputs": [],
      "stateMutability": "nonpayable",
      "type": "function"
    },
    {
      "inputs": [
        {
          "internalType": "address",
          "name": "newOwner",
          "type": "address"
        }
      ],
      "name": "transferOwnership",
      "outputs": [],
      "stateMutability": "nonpayable",
      "type": "function"
    },
    {
      "inputs": [],
      "name": "unpause",
      "outputs": [],
      "stateMutability": "nonpayable",
      "type": "function"
    },
    {
      "inputs": [
        {
          "internalType": "uint256",
          "name": "listingId",
          "type": "uint256"
        },
        {
          "internalType": "uint256",
          "name": "newPrice",
          "type": "uint256"
        }
      ],
      "name": "updateListingPrice",
      "outputs": [],
      "stateMutability": "nonpayable",
      "type": "function"
    }
  ],
  "transactionHash": "0x48093cbae1146c4898bcc815b1e585676cc68fcabdd2aab0c497584e6fb50398",
  "args": [],
  "numDeployments": 1,
  "solcInputHash": "13bdeba8a373d3d912b133a4532cf890",
  "bytecode": "0x6080604052348015600f57600080fd5b503380603557604051631e4fbdf760e01b81526000600482015260240160405180910390fd5b603c816052565b506000805460ff60a01b191690556001805560a2565b600080546001600160a01b038381166001600160a01b0319831681178455604051919092169283917f8be0079c531659141344cd1fd0a4f28419497f9722a3daafe3b4186f6b6457e09190a35050565b61118a806100b16000396000f3fe6080604052600436106100c25760003560e01c80638da5cb5b1161007f578063d217c7f211610059578063d217c7f2146101d3578063de74e57b14610219578063f2fde38b1461026e578063f4b125081461028e57600080fd5b80638da5cb5b1461016b578063ad05f1b414610193578063c4604943146101b357600080fd5b8063305a67a8146100c75780633f4ba83a146100e957806351ed8288146100fe5780635c975abb14610111578063715018a6146101415780638456cb5914610156575b600080fd5b3480156100d357600080fd5b506100e76100e2366004610fb0565b6102c9565b005b3480156100f557600080fd5b506100e7610411565b6100e761010c366004610fb0565b610423565b34801561011d57600080fd5b50600054600160a01b900460ff165b60405190151581526020015b60405180910390f35b34801561014d57600080fd5b506100e7610791565b34801561016257600080fd5b506100e76107a3565b34801561017757600080fd5b506000546040516001600160a01b039091168152602001610138565b34801561019f57600080fd5b506100e76101ae366004610fde565b6107b3565b3480156101bf57600080fd5b506100e76101ce366004611013565b610c12565b3480156101df57600080fd5b5061012c6101ee366004611035565b6001600160a01b03919091166000908152600360209081526040808320938352929052205460ff1690565b34801561022557600080fd5b50610239610234366004610fb0565b610d91565b604080516001600160a01b0396871681529590941660208601529284019190915260608301521515608082015260a001610138565b34801561027a57600080fd5b506100e7610289366004611061565b610de1565b34801561029a57600080fd5b5061012c6102a9366004611035565b600360209081526000928352604080842090915290825290205460ff1681565b6102d1610e1c565b80336001600160a01b0316600282815481106102ef576102ef611085565b60009182526020909120600590910201546001600160a01b0316146103545760405162461bcd60e51b81526020600482015260166024820152752cb7ba9030b932903737ba103a34329039b2b63632b960511b60448201526064015b60405180910390fd5b60006002838154811061036957610369611085565b60009182526020909120600590910201600481015490915060ff16156103a15760405162461bcd60e51b815260040161034b9061109b565b6001810180546001600160a01b03908116600090815260036020908152604080832060028701805485529252808320805460ff1916905590549354855491519084169391909116917ffb87149f10f1ffda9c1df55fae0d68fe643c8be0790eec2f859205ed312cd68b91a4505050565b610419610e47565b610421610e74565b565b61042b610e1c565b610433610ec9565b60006002828154811061044857610448611085565b906000526020600020906005020190508060030154341461049d5760405162461bcd60e51b815260206004820152600f60248201526e496e636f727265637420707269636560881b604482015260640161034b565b600481015460ff16156104c25760405162461bcd60e51b815260040161034b9061109b565b6001810154600282015460405163020604bf60e21b8152600481019190915230916001600160a01b03169063081812fc90602401602060405180830381865afa158015610513573d6000803e3d6000fd5b505050506040513d601f19601f8201168201806040525081019061053791906110c5565b6001600160a01b031614806105be57506001810154815460405163e985e9c560e01b81526001600160a01b03918216600482015230602482015291169063e985e9c590604401602060405180830381865afa15801561059a573d6000803e3d6000fd5b505050506040513d601f19601f820116820180604052508101906105be91906110e2565b6105da5760405162461bcd60e51b815260040161034b90611104565b60048181018054600160ff19918216811790925590830180546001600160a01b039081166000908152600360209081526040808320600289018054855292529182902080549095169094559154855493549251632142170760e11b815293821694840194909452336024840152604483019190915291909116906342842e0e90606401600060405180830381600087803b15801561067757600080fd5b505af115801561068b573d6000803e3d6000fd5b50508254604051600093506001600160a01b03909116915034908381818185875af1925050503d80600081146106dd576040519150601f19603f3d011682016040523d82523d6000602084013e6106e2565b606091505b50509050806107335760405162461bcd60e51b815260206004820152601960248201527f5472616e7366657220746f2073656c6c6572206661696c656400000000000000604482015260640161034b565b6002820154600183015460038401546040519081526001600160a01b039091169033907ff6ccc0cf89c21c54724ea6ef2ec01da8fe33a1cebe06607e160fd78483eba3029060200160405180910390a4505061078e60018055565b50565b610799610e47565b6104216000610ef3565b6107ab610e47565b610421610f43565b6107bb610e1c565b6000811161080b5760405162461bcd60e51b815260206004820152601c60248201527f5072696365206d7573742062652067726561746572207468616e203000000000604482015260640161034b565b6040516301ffc9a760e01b81526380ac58cd60e01b60048201526001600160a01b038416906301ffc9a790602401602060405180830381865afa158015610856573d6000803e3d6000fd5b505050506040513d601f19601f8201168201806040525081019061087a91906110e2565b6108bf5760405162461bcd60e51b8152602060048201526016602482015275436f6e7472616374206973206e6f742045524337323160501b604482015260640161034b565b6040516331a9108f60e11b81526004810183905233906001600160a01b03851690636352211e90602401602060405180830381865afa158015610906573d6000803e3d6000fd5b505050506040513d601f19601f8201168201806040525081019061092a91906110c5565b6001600160a01b0316146109785760405162461bcd60e51b81526020600482015260156024820152742cb7ba9030b932903737ba103a34329037bbb732b960591b604482015260640161034b565b60405163020604bf60e21b81526004810183905230906001600160a01b0385169063081812fc90602401602060405180830381865afa1580156109bf573d6000803e3d6000fd5b505050506040513d601f19601f820116820180604052508101906109e391906110c5565b6001600160a01b03161480610a61575060405163e985e9c560e01b81523360048201523060248201526001600160a01b0384169063e985e9c590604401602060405180830381865afa158015610a3d573d6000803e3d6000fd5b505050506040513d601f19601f82011682018060405250810190610a6191906110e2565b610a7d5760405162461bcd60e51b815260040161034b90611104565b6040805160a081018252338082526001600160a01b0386811660208085018281528587018981526060870189815260006080890181815260028054600181810183559184529a516005909b027f405787fa12a823e0f2b7631cc41b3ba8828b3321ca811111fa75cd3aa3bb5ace810180549c8b166001600160a01b03199d8e1617905595517f405787fa12a823e0f2b7631cc41b3ba8828b3321ca811111fa75cd3aa3bb5acf8701805491909a169b169a909a1790975591517f405787fa12a823e0f2b7631cc41b3ba8828b3321ca811111fa75cd3aa3bb5ad0840155517f405787fa12a823e0f2b7631cc41b3ba8828b3321ca811111fa75cd3aa3bb5ad183015593517f405787fa12a823e0f2b7631cc41b3ba8828b3321ca811111fa75cd3aa3bb5ad2909101805491151560ff1992831617905582845260038252868420898552909152918590208054909216909317905591518492907fbeab3a2bb824b124a8a1eb465eec003338d61b414db132d37e9b3a984fdcf01090610c059086815260200190565b60405180910390a4505050565b610c1a610e1c565b81336001600160a01b031660028281548110610c3857610c38611085565b60009182526020909120600590910201546001600160a01b031614610c985760405162461bcd60e51b81526020600482015260166024820152752cb7ba9030b932903737ba103a34329039b2b63632b960511b604482015260640161034b565b600060028481548110610cad57610cad611085565b60009182526020909120600590910201600481015490915060ff1615610ce55760405162461bcd60e51b815260040161034b9061109b565b60008311610d355760405162461bcd60e51b815260206004820152601c60248201527f5072696365206d7573742062652067726561746572207468616e203000000000604482015260640161034b565b600381018390556002810154600182015482546040518681526001600160a01b0392831692909116907f1344c6dbfc846cddbfd5097c899a782e28b0d7602d7e61dc8e01a296f53310fd9060200160405180910390a450505050565b60028181548110610da157600080fd5b6000918252602090912060059091020180546001820154600283015460038401546004909401546001600160a01b03938416955091909216929060ff1685565b610de9610e47565b6001600160a01b038116610e1357604051631e4fbdf760e01b81526000600482015260240161034b565b61078e81610ef3565b600054600160a01b900460ff16156104215760405163d93c066560e01b815260040160405180910390fd5b6000546001600160a01b031633146104215760405163118cdaa760e01b815233600482015260240161034b565b610e7c610f86565b6000805460ff60a01b191690557f5db9ee0a495bf2e6ff9c91a7834c1ba4fdd244a5e8aa4e537bd38aeae4b073aa335b6040516001600160a01b03909116815260200160405180910390a1565b600260015403610eec57604051633ee5aeb560e01b815260040160405180910390fd5b6002600155565b600080546001600160a01b038381166001600160a01b0319831681178455604051919092169283917f8be0079c531659141344cd1fd0a4f28419497f9722a3daafe3b4186f6b6457e09190a35050565b610f4b610e1c565b6000805460ff60a01b1916600160a01b1790557f62e78cea01bee320cd4e420270b5ea74000d11b0c9f74754ebdbfc544b05a258610eac3390565b600054600160a01b900460ff1661042157604051638dfc202b60e01b815260040160405180910390fd5b600060208284031215610fc257600080fd5b5035919050565b6001600160a01b038116811461078e57600080fd5b600080600060608486031215610ff357600080fd5b8335610ffe81610fc9565b95602085013595506040909401359392505050565b6000806040838503121561102657600080fd5b50508035926020909101359150565b6000806040838503121561104857600080fd5b823561105381610fc9565b946020939093013593505050565b60006020828403121561107357600080fd5b813561107e81610fc9565b9392505050565b634e487b7160e01b600052603260045260246000fd5b60208082526010908201526f13919508185b1c9958591e481cdbdb1960821b604082015260600190565b6000602082840312156110d757600080fd5b815161107e81610fc9565b6000602082840312156110f457600080fd5b8151801515811461107e57600080fd5b60208082526030908201527f4d61726b6574706c616365206973206e6f7420617070726f76656420746f207460408201526f1c985b9cd9995c881d1a1a5cc813919560821b60608201526080019056fea26469706673582212200b55bb4375f3ee4e47d035c70d1e85a0cff79a1343c6d2e7f94a319a0463471e64736f6c634300081b0033",
  "devdoc": {
    "errors": {
      "EnforcedPause()": [
        {
          "details": "The operation failed because the contract is paused."
        }
      ],
      "ExpectedPause()": [
        {
          "details": "The operation failed because the contract is not paused."
        }
      ],
      "OwnableInvalidOwner(address)": [
        {
          "details": "The owner is not a valid owner account. (eg. `address(0)`)"
        }
      ],
      "OwnableUnauthorizedAccount(address)": [
        {
          "details": "The caller account is not authorized to perform an operation."
        }
      ],
      "ReentrancyGuardReentrantCall()": [
        {
          "details": "Unauthorized reentrant call."
        }
      ]
    },
    "events": {
      "Paused(address)": {
        "details": "Emitted when the pause is triggered by `account`."
      },
      "Unpaused(address)": {
        "details": "Emitted when the pause is lifted by `account`."
      }
    },
    "kind": "dev",
    "methods": {
      "owner()": {
        "details": "Returns the address of the current owner."
      },
      "paused()": {
        "details": "Returns true if the contract is paused, and false otherwise."
      },
      "renounceOwnership()": {
        "details": "Leaves the contract without owner. It will not be possible to call `onlyOwner` functions. Can only be called by the current owner. NOTE: Renouncing ownership will leave the contract without an owner, thereby disabling any functionality that is only available to the owner."
      },
      "transferOwnership(address)": {
        "details": "Transfers ownership of the contract to a new account (`newOwner`). Can only be called by the current owner."
      }
    },
    "version": 1
  },
  "userdoc": {
    "kind": "user",
    "methods": {},
    "version": 1
  },
  "storageLayout": {
    "storage": [
      {
        "astId": 8,
        "contract": "contracts/MarketplaceNFT.sol:MarketplaceNFT",
        "label": "_owner",
        "offset": 0,
        "slot": "0",
        "type": "t_address"
      },
      {
        "astId": 1495,
        "contract": "contracts/MarketplaceNFT.sol:MarketplaceNFT",
        "label": "_paused",
        "offset": 20,
        "slot": "0",
        "type": "t_bool"
      },
      {
        "astId": 1614,
        "contract": "contracts/MarketplaceNFT.sol:MarketplaceNFT",
        "label": "_status",
        "offset": 0,
        "slot": "1",
        "type": "t_uint256"
      },
      {
        "astId": 3149,
        "contract": "contracts/MarketplaceNFT.sol:MarketplaceNFT",
        "label": "listings",
        "offset": 0,
        "slot": "2",
        "type": "t_array(t_struct(Listing)3145_storage)dyn_storage"
      },
      {
        "astId": 3155,
        "contract": "contracts/MarketplaceNFT.sol:MarketplaceNFT",
        "label": "activeListings",
        "offset": 0,
        "slot": "3",
        "type": "t_mapping(t_address,t_mapping(t_uint256,t_bool))"
      }
    ],
    "types": {
      "t_address": {
        "encoding": "inplace",
        "label": "address",
        "numberOfBytes": "20"
      },
      "t_array(t_struct(Listing)3145_storage)dyn_storage": {
        "base": "t_struct(Listing)3145_storage",
        "encoding": "dynamic_array",
        "label": "struct MarketplaceNFT.Listing[]",
        "numberOfBytes": "32"
      },
      "t_bool": {
        "encoding": "inplace",
        "label": "bool",
        "numberOfBytes": "1"
      },
      "t_mapping(t_address,t_mapping(t_uint256,t_bool))": {
        "encoding": "mapping",
        "key": "t_address",
        "label": "mapping(address => mapping(uint256 => bool))",
        "numberOfBytes": "32",
        "value": "t_mapping(t_uint256,t_bool)"
      },
      "t_mapping(t_uint256,t_bool)": {
        "encoding": "mapping",
        "key": "t_uint256",
        "label": "mapping(uint256 => bool)",
        "numberOfBytes": "32",
        "value": "t_bool"
      },
      "t_struct(Listing)3145_storage": {
        "encoding": "inplace",
        "label": "struct MarketplaceNFT.Listing",
        "members": [
          {
            "astId": 3136,
            "contract": "contracts/MarketplaceNFT.sol:MarketplaceNFT",
            "label": "seller",
            "offset": 0,
            "slot": "0",
            "type": "t_address"
          },
          {
            "astId": 3138,
            "contract": "contracts/MarketplaceNFT.sol:MarketplaceNFT",
            "label": "nftContract",
            "offset": 0,
            "slot": "1",
            "type": "t_address"
          },
          {
            "astId": 3140,
            "contract": "contracts/MarketplaceNFT.sol:MarketplaceNFT",
            "label": "tokenId",
            "offset": 0,
            "slot": "2",
            "type": "t_uint256"
          },
          {
            "astId": 3142,
            "contract": "contracts/MarketplaceNFT.sol:MarketplaceNFT",
            "label": "price",
            "offset": 0,
            "slot": "3",
            "type": "t_uint256"
          },
          {
            "astId": 3144,
            "contract": "contracts/MarketplaceNFT.sol:MarketplaceNFT",
            "label": "sold",
            "offset": 0,
            "slot": "4",
            "type": "t_bool"
          }
        ],
        "numberOfBytes": "160"
      },
      "t_uint256": {
        "encoding": "inplace",
        "label": "uint256",
        "numberOfBytes": "32"
      }
    }
  }
}